:020000040800F2
:10000000401400209D010008A5010008A701000878
:10001000A9010008AB010008AD01000800000000C4
:10002000000000000000000000000000AF01000818
:10003000B101000800000000B301000875090008C4
:10004000B7010008B7010008B7010008B7010008B0
:10005000B7010008B701000851050008B701000802
:100060006D05000889050008A5050008B70100080E
:10007000B7010008B7010008B7010008B701000880
:10008000B7010008B7010008B7010008B701000870
:10009000B7010008B7010008B7010008B701000860
:1000A000B7010008B7010008B7010008B701000850
:1000B000B7010008B7010008B7010008B701000840
:1000C000B7010008B7010008B7010008B701000830
:1000D000B7010008ED090008A90B0008B7010008E6
:1000E000B7010008B7010008B7010008B701000810
:1000F000B7010008B7010008B7010008B701000800
:10010000B7010008B7010008B7010008B7010008EF
:10011000B7010008B7010008B7010008B7010008DF
:10012000B7010008B7010008B7010008B7010008CF
:10013000B7010008B7010008B7010008B7010008BF
:10014000B7010008B7010008B7010008B7010008AF
:10015000B7010008B7010008B7010008B70100089F
:10016000B7010008B7010008B7010008B70100088F
:10017000B7010008B7010008B7010008B70100087F
:10018000B7010008B7010008DFF80CD000F08CF9C7
:1001900000480047650E00084014002006488047CC
:1001A00006480047FEE7FEE7FEE7FEE7FEE7FEE75C
:1001B000FEE7FEE7FEE7FEE7850900088901000883
:1001C0002DE9FE4F81EA030404F0004421F00041D0
:1001D00000944FF0000B23F0004350EA01045ED07E
:1001E00052EA03045BD0C3F30A54C1F30A552C440A
:1001F000A4F2F3340194A0FB0254C1F3130141F4BF
:100200008011C3F3130343F4801301FB024400FB8A
:10021000034E840A970A44EA815447EA8357A4FBB1
:10022000076802958D0A05FB07854FEA932C04FBAE
:100230000C542705029D4FEA065847EA1637B5EBDE
:1002400008056EEB070C870E920E47EA811742EA0B
:100250008312A7FB0201B6EB0B0164EB00042B0D2C
:1002600043EA0C335E1844EB1C50DA465146E7FB78
:100270000201C5F313044FEA0B3343EA14534FEA68
:100280000432019C43EA0603A4F10C040294009C8E
:10029000CDE900B400F0BAF803B0BDE8F08F00205B
:1002A0000146F9E72DE9F04D81EA030404F0004B23
:1002B00021F0004514464FF0000A23F0004150EAB7
:1002C000050220D054EA01021DD0C5F30A570246A8
:1002D000C5F31303C1F31300C1F30A5640F48015AC
:1002E00043F48013A7EB0608101BD64608F2FD382E
:1002F00073EB050002D308F1010801E092185B419D
:10030000B8F1000F03DA00200146BDE8F08D0020AF
:100310004FF48011064684460EE0171B73EB050769
:1003200005D3121B63EB050306434CEA010C490895
:100330004FEA300092185B4150EA0107EDD152EAD2
:10034000030012D082EA040083EA0501084305D0C5
:10035000101BAB4106D20122002306E000224FF021
:10036000004302E06FF0010253101AEB06004CEB61
:10037000085110EB0A0041EB0B01BDE8F04D00F015
:1003800036B80EB540F2334102910021CDE900119B
:100390000A460B4600F03AF803B000BDC1F30A521A
:1003A00010B5C1F3130140F2FF3341F480119A42BA
:1003B00001DA002010BD40F233439A42A2F23342E8
:1003C00003DC524200F003F810BD904010BD202A1B
:1003D00004DB203A21FA02F00021704721FA02F3EF
:1003E000D040C2F12002914008431946704710B531
:1003F000141E73F1000408DA401C41F10001921848
:100400005B411A4301D120F0010010BD2DE9F04DF0
:1004100092469B4611B1B1FA81F202E0B0FA80F245
:100420002032904600F052F804460F4640EA0A0097
:1004300041EA0B0153465A46084313D0114653EA8A
:10044000010019D0C8F140025046FFF7C0FF054631
:100450000E4650465946424600F038F8084305D04B
:10046000012004E020463946BDE8F08D0020054318
:1004700046EAE0762C4337430A986305E40AA0EB8A
:1004800008000022FD0A44EA47540A3002D5002041
:100490000146E9E7010510196941DDE90845001940
:1004A0006941BDE8F04DA2E7064C074D06E0E06863
:1004B00040F0010394E8070098471034AC42F6D3AB
:1004C000FFF766FE380F0008580F0008202A04DBEB
:1004D000203A00FA02F1002070479140C2F1200357
:1004E00020FA03F3194390407047000010B51648F6
:1004F000006840F01000144908601448006820F0BB
:100500000300124908600846006840F001000860D6
:100510000846406820F0010048600846C06820F0A6
:100520000300C8600846806820F003008860084621
:10053000806840F00300886000231A46194603488B
:1005400000F076FC10BD0000303802400010024080
:100550000548006800F0010028B10348006840F039
:100560000100014908607047143C014005480068DB
:1005700000F0040028B10348006840F0040001497D
:1005800008607047143C01400548006800F008000E
:1005900028B10348006840F008000149086070472E
:1005A000143C01400548006800F0100028B10348E1
:1005B000006840F01000014908607047143C014099
:1005C00070B55448006840F0110052490860514825
:1005D0001430006840F480404E49143108604E48A1
:1005E000006820F003004C4908600846C06820F00D
:1005F0000300C8604948006820F47C7047490860DF
:100600000846C06820F47C70C860454800684FF612
:100610000F718843424908600846006840F48840EA
:1006200008603F480838C06820F00F013C4808388F
:10063000C160C06840F0040139480838C1603948D9
:10064000006840F01D0037490860081D006820F070
:100650001D00091D086033480C30006840F01C0084
:1006600030490C310860081F006840F00100091F84
:10067000086000F0D9F805460222114600F0B3F8F0
:1006800004462146082000F0D7F800F0CDF80546D2
:100690000222114600F0A7F804462146092000F086
:1006A000CBF800F0C1F805460222114600F09BF895
:1006B000044621460A2000F0BFF800F0B5F80546D0
:1006C0000222114600F08FF804462146062000F071
:1006D000B3F8082000F07CF8092000F079F80A202F
:1006E00000F076F8062000F073F8082000F064F8B7
:1006F000092000F061F80A2000F05EF8062000F002
:100700005BF808481430006840F01D0005491431BA
:10071000086070BD30380240000002400010024006
:1007200008380140003C014010B52148006840F005
:1007300004001F4908601F48006820F47F401D49DD
:1007400008600846006840F4AA400860081D006878
:1007500020F0F000091D086016480C30006820F4F5
:100760007F4014490C310860081F006820F47F4066
:10077000091F08600846006840F47F4008600023B5
:10078000012204210B4800F053FB00230122052124
:10079000084800F04DFB002301220621054800F027
:1007A00047FB002301220721024800F041FB10BD56
:1007B000303802400008024000F01F020121914041
:1007C000024A430942F823107047000080E200E02B
:1007D00000F01F02012191404209920002F1E02243
:1007E000C2F800117047F0B503460C4603F007014C
:1007F000C1F10700042801D9042001E0C1F107007C
:100800000646081D072801D2002000E0C81E054644
:100810000120B040401E2040A8400127AF407F1E6D
:1008200017403843F0BD000002480068C0F30220C2
:10083000704700000CED00E010B5002807DA0A0749
:10084000140E054A00F00F031B1FD45403E00A07DF
:10085000130E024A135410BD18ED00E000E400E04E
:1008600010B5002807DA0A07140E054A00F00F0336
:100870001B1FD45403E00A07130E024A135410BD81
:1008800018ED00E000E400E00CB5002001900090BD
:100890003448006840F480303249086000BF314875
:1008A000006800F4003000900198401C019000980E
:1008B00018B90198B0F5A04FF1D12A48006800F4AA
:1008C000003010B10120009001E00020009000985D
:1008D000012846D123484030006840F0805021492B
:1008E000403108602048006840F440401E490860DC
:1008F0001C48083000681B49083108600846006839
:1009000040F4004008600846006840F4A0500860C9
:100910001648091F0860081F006840F08070091F12
:10092000086000BF0F48006800F000700028F9D090
:1009300040F205700E4908600A480830006820F04F
:1009400003000849083108600846006840F00200CA
:10095000086000BF03480830006800F00C00082859
:10096000F8D10CBD00380240007000401954400717
:10097000003C024002480068401C01490860704782
:100980002400002010B51548006840F47000134999
:1009900008601348006840F0010011490860002019
:1009A0000F49083108600E4800680E4908400C499C
:1009B00008600D48091D0860081F006820F48020A9
:1009C000091F0860002006490C310860FFF75CFF32
:1009D0004FF0006001498039086010BD88ED00E0EB
:1009E00000380240FFFFF6FE103000241048008857
:1009F00000F0200058B10E488088C1B20D4802684E
:100A00000068401C0B4B18600B4881540FE00848ED
:100A1000008800F0100050B1054880880448008824
:100A200000200449086001200449C1F8000870470B
:100A3000001001401C000020300400203000002085
:100A400070B52DED0A8B04464E48006840F0010059
:100A50004C4908604B481430006840F01000494988
:100A6000143108604848006820F470104649086056
:100A70000846006840F4201008600846C06820F46A
:100A80007010C8600846406820F47010486008463E
:100A9000406A20F0F0013C484162406A20F47061F5
:100AA00039484162406A40F0700137484162406A0B
:100AB00040F4E061344841623448808920F4805039
:100AC000324988810846808920F480608881084600
:100AD000008A20F4405008820846808920F40040B3
:100AE00088812B490988C90BC1F10201C90001FBAA
:100AF00004F0FFF746FC41EC1A0B26480068FFF7AC
:100B000040FC41EC1C0B9FED240B53EC102BFFF72A
:100B1000C9FB41EC1B0B53EC1A2BFFF7C3FB41EC59
:100B2000190B9FED1F0B53EC102BFFF749FB41EC0A
:100B3000180BFFF733FC154908810846808940F0FF
:100B400030008881FFF770FE064602221146FFF74B
:100B50004AFE054629462520FFF76EFE2520FFF7B1
:100B600037FE2520FFF728FE0848808940F00C005A
:100B7000064988810846808940F400508881BDEC90
:100B80000A8B70BD30380240000002400010014066
:100B90000C44004000000020000000000000004065
:100BA00000000000000030401148008800F02000E4
:100BB00060B10F48001D0088C1B20E48026800688D
:100BC000401C0C4B18600C48815410E00848008809
:100BD00000F0100058B10648001D00880748008842
:100BE00000200449086001200549C1F80008704749
:100BF0000044004020000020380C0020001001407C
:100C00003808002070B52DED0A8B04464F48006867
:100C100040F001004D4908604C481030006840F435
:100C200000304A49103108604948006820F0F0005F
:100C3000474908600846006840F0A0000860084680
:100C4000C06820F0F000C8600846406820F0F0005E
:100C500048600846006A20F4704008620846006A4E
:100C600020F4706008620846006A40F4E0400862C0
:100C70000846006A40F4E06008623648008820F4C4
:100C80008050344908800846008820F4806008803D
:100C9000081D008820F44050091D0880081F0088A6
:100CA00020F40040091F08800988C90BC1F1020126
:100CB000C90001FB04F0FFF764FB41EC1A0B264866
:100CC0000068FFF75EFB41EC1C0B9FED240B53EC1F
:100CD000102BFFF7E7FA41EC1B0B53EC1A2BFFF735
:100CE000E1FA41EC190B9FED1F0B53EC102BFFF7B2
:100CF00067FA41EC180BFFF751FB1649091F0880F2
:100D0000081D008840F03000091D0880FFF78CFDA9
:100D1000064601221146FFF766FD054629462620B4
:100D2000FFF78AFD2620FFF753FD2620FFF744FD3D
:100D30000848008840F00C000649088008460088F2
:100D400040F400500880BDEC0A8B70BD3038024082
:100D5000000002400C4400400000002000000000A1
:100D600000001040000000000000304010B50446B4
:100D70000B4604E013F8011B204600F0D5F8187864
:100D80000028F7D110BD0000014A024900F013B855
:100D9000190E00082C00002002E008C8121F08C12C
:100DA000002AFAD170477047002001E001C1121FEC
:100DB000002AFBD170472DE9F04116460F46044644
:100DC000002503E03946B047641C6D1C20780028DC
:100DD000F8D12846BDE8F08170B505460D48006899
:100DE0004FF47A71B0FBF1F4601EB0F1807F00D354
:100DF0000FE0601E4FF0E02148610F214FF0FF30FF
:100E0000FFF72EFD00204FF0E021886107200861E8
:100E100000BF70BD0000002000BF044A128802F02D
:100E20008002002AF9D0014B9880704700100140E1
:100E300070B5846923B10AB9012502E0002500E0FC
:100E400015460DB1002500E010256E180125B540AE
:100E50002C43846170BD426901238B405A4042613A
:100E60007047000005200246224B19684FF6FF0329
:100E70001940214B0B4343EA02211E4B196000BF6E
:100E8000FFF752FC4FF4E130FFF7BCFEFFF798FB91
:100E90004FF4E130FFF7D4FDFFF728FB0120FFF707
:100EA0009BFF16A11748FFF761FF21E01648046871
:100EB00016480068201A41F28831884208D3134846
:100EC000046004211248FFF7C6FF12A0FFF75CFF81
:100ED00012480068201AB0F57A7F08D30F480460E2
:100EE00005210B48FFF7B7FF0DA0FFF74DFF00BF2F
:100EF000DCE700000CED00E00000FA05C4E3BAC333
:100F00000000000000100140240000201400002018
:100F1000000802403434340D0A000000180000209C
:100F20003535350D0A00000000BF028802F080024E
:100F3000002AFAD081807047580F00080000002076
:100F400030000000980D0008880F000830000020D5
:100F500010140000A80D0008007A030A0000000029
:100F60000000000001020304060708090000000059
:100F70000000000000000000000000000000000071
:080F8000000000000000000069
:040000050800018965
:00000001FF
